{
  "contractName": "SimpleStorage",
  "abi": [
    {
      "inputs": [],
      "stateMutability": "nonpayable",
      "type": "constructor"
    },
    {
      "anonymous": false,
      "inputs": [
        {
          "indexed": true,
          "internalType": "address",
          "name": "user",
          "type": "address"
        },
        {
          "indexed": false,
          "internalType": "uint256",
          "name": "number",
          "type": "uint256"
        },
        {
          "indexed": false,
          "internalType": "uint256",
          "name": "timestamp",
          "type": "uint256"
        }
      ],
      "name": "NumberSaved",
      "type": "event"
    },
    {
      "inputs": [],
      "name": "favouriteNumber",
      "outputs": [
        {
          "internalType": "uint256",
          "name": "",
          "type": "uint256"
        }
      ],
      "stateMutability": "view",
      "type": "function",
      "constant": true
    },
    {
      "inputs": [
        {
          "internalType": "uint256",
          "name": "_favouriteNumber",
          "type": "uint256"
        }
      ],
      "name": "storeNumber",
      "outputs": [],
      "stateMutability": "nonpayable",
      "type": "function"
    }
  ],
  "bytecode": "0x608060405234801561001057600080fd5b5060076000819055506101c6806100286000396000f3fe608060405234801561001057600080fd5b50600436106100365760003560e01c806343ede4ae1461003b578063b633941814610059575b600080fd5b610043610075565b6040516100509190610126565b60405180910390f35b610073600480360381019061006e91906100ea565b61007b565b005b60005481565b806000819055503373ffffffffffffffffffffffffffffffffffffffff167f99355c2c5accd32fa1017bb46f013cff8dfb7445a315237536041b8102ce545a82426040516100ca929190610141565b60405180910390a250565b6000813590506100e481610179565b92915050565b600060208284031215610100576100ff610174565b5b600061010e848285016100d5565b91505092915050565b6101208161016a565b82525050565b600060208201905061013b6000830184610117565b92915050565b60006040820190506101566000830185610117565b6101636020830184610117565b9392505050565b6000819050919050565b600080fd5b6101828161016a565b811461018d57600080fd5b5056fea2646970667358221220185c7586e2398e59f2e1e45461ba60edbee391080881f2649b8baa3158a2a03864736f6c63430008060033",
  "immutableReferences": {},
  "source": "// SPDX-License-Identifier: MIT\n\npragma solidity >=0.8.6;\n\n/* ***************************************************************************************************************************\nA simple contract to store favourite number in a publicly accessible variable. Initially favourite number = 7.\nWhenver a user stores their favourite number into the variable using a function, an event is emitted.\n**************************************************************************************************************************** */\n\ncontract SimpleStorage {\n    uint256 public favouriteNumber;\n\n    event NumberSaved(address indexed user, uint256 number, uint256 timestamp);\n\n    constructor() {\n        favouriteNumber = 7;\n    }\n\n    function storeNumber(uint256 _favouriteNumber) public {\n        favouriteNumber = _favouriteNumber;\n        emit NumberSaved(msg.sender, _favouriteNumber, block.timestamp);\n    }\n}\n",
  "sourcePath": "/Users/avi/Documents/Ethereum/template/contracts/SimpleStorage.sol",
  "compiler": {
    "name": "solc",
    "version": "0.8.6+commit.11564f7e.Emscripten.clang"
  },
  "schemaVersion": "3.4.4",
  "updatedAt": "2022-05-06T12:53:38.672Z",
  "networkType": "ethereum",
  "devdoc": {
    "kind": "dev",
    "methods": {},
    "version": 1
  },
  "userdoc": {
    "kind": "user",
    "methods": {},
    "version": 1
  }
}